{
  "contractName": "BoxingBets",
  "abi": [
    {
      "constant": true,
      "inputs": [],
      "name": "owner",
      "outputs": [
        {
          "name": "",
          "type": "address"
        }
      ],
      "payable": false,
      "stateMutability": "view",
      "type": "function"
    },
    {
      "constant": false,
      "inputs": [
        {
          "name": "newOwner",
          "type": "address"
        }
      ],
      "name": "transferOwnership",
      "outputs": [],
      "payable": false,
      "stateMutability": "nonpayable",
      "type": "function"
    },
    {
      "anonymous": false,
      "inputs": [
        {
          "indexed": true,
          "name": "previousOwner",
          "type": "address"
        },
        {
          "indexed": true,
          "name": "newOwner",
          "type": "address"
        }
      ],
      "name": "OwnershipTransferred",
      "type": "event"
    },
    {
      "constant": true,
      "inputs": [],
      "name": "getBettableMatches",
      "outputs": [
        {
          "name": "",
          "type": "bytes32[]"
        }
      ],
      "payable": false,
      "stateMutability": "view",
      "type": "function"
    },
    {
      "constant": true,
      "inputs": [
        {
          "name": "_matchId",
          "type": "bytes32"
        }
      ],
      "name": "getMatch",
      "outputs": [
        {
          "name": "id",
          "type": "bytes32"
        },
        {
          "name": "name",
          "type": "string"
        },
        {
          "name": "participants",
          "type": "string"
        },
        {
          "name": "participantCount",
          "type": "uint8"
        },
        {
          "name": "date",
          "type": "uint256"
        },
        {
          "name": "outcome",
          "type": "uint8"
        },
        {
          "name": "winner",
          "type": "int8"
        }
      ],
      "payable": false,
      "stateMutability": "view",
      "type": "function"
    },
    {
      "constant": true,
      "inputs": [],
      "name": "getMostRecentMatch",
      "outputs": [
        {
          "name": "id",
          "type": "bytes32"
        },
        {
          "name": "name",
          "type": "string"
        },
        {
          "name": "participants",
          "type": "string"
        },
        {
          "name": "participantCount",
          "type": "uint256"
        },
        {
          "name": "date",
          "type": "uint256"
        },
        {
          "name": "outcome",
          "type": "uint8"
        },
        {
          "name": "winner",
          "type": "int8"
        }
      ],
      "payable": false,
      "stateMutability": "view",
      "type": "function"
    },
    {
      "constant": false,
      "inputs": [
        {
          "name": "_matchId",
          "type": "bytes32"
        },
        {
          "name": "_chosenWinner",
          "type": "uint8"
        }
      ],
      "name": "placeBet",
      "outputs": [],
      "payable": true,
      "stateMutability": "payable",
      "type": "function"
    },
    {
      "constant": false,
      "inputs": [
        {
          "name": "_oracleAddress",
          "type": "address"
        }
      ],
      "name": "setOracleAddress",
      "outputs": [
        {
          "name": "",
          "type": "bool"
        }
      ],
      "payable": true,
      "stateMutability": "payable",
      "type": "function"
    },
    {
      "constant": true,
      "inputs": [],
      "name": "getOracleAddress",
      "outputs": [
        {
          "name": "",
          "type": "address"
        }
      ],
      "payable": false,
      "stateMutability": "view",
      "type": "function"
    },
    {
      "constant": true,
      "inputs": [],
      "name": "testOracleConnection",
      "outputs": [
        {
          "name": "",
          "type": "bool"
        }
      ],
      "payable": false,
      "stateMutability": "view",
      "type": "function"
    }
  ],
  "bytecode": "0x6080604052600360009054906101000a900473ffffffffffffffffffffffffffffffffffffffff16600460006101000a81548173ffffffffffffffffffffffffffffffffffffffff021916908373ffffffffffffffffffffffffffffffffffffffff16021790555064e8d4a51000600555336000806101000a81548173ffffffffffffffffffffffffffffffffffffffff021916908373ffffffffffffffffffffffffffffffffffffffff1602179055506112d1806100bf6000396000f3fe608060405260043610610099576000357c0100000000000000000000000000000000000000000000000000000000900463ffffffff1680630e52bb491461009e5780632ce3707e146100d95780633397741b146101085780634c69c00f146101745780638da5cb5b146101d0578063b18b78dd14610227578063ced1b7081461027e578063f2fde38b146103b1578063fcc6077d14610402575b600080fd5b6100d7600480360360408110156100b457600080fd5b8101908080359060200190929190803560ff16906020019092919050505061055f565b005b3480156100e557600080fd5b506100ee6109ad565b604051808215151515815260200191505060405180910390f35b34801561011457600080fd5b5061011d610a73565b6040518080602001828103825283818151815260200191508051906020019060200280838360005b83811015610160578082015181840152602081019050610145565b505050509050019250505060405180910390f35b6101b66004803603602081101561018a57600080fd5b81019080803573ffffffffffffffffffffffffffffffffffffffff169060200190929190505050610b8f565b604051808215151515815260200191505060405180910390f35b3480156101dc57600080fd5b506101e5610d56565b604051808273ffffffffffffffffffffffffffffffffffffffff1673ffffffffffffffffffffffffffffffffffffffff16815260200191505060405180910390f35b34801561023357600080fd5b5061023c610d7b565b604051808273ffffffffffffffffffffffffffffffffffffffff1673ffffffffffffffffffffffffffffffffffffffff16815260200191505060405180910390f35b34801561028a57600080fd5b50610293610da5565b6040518088815260200180602001806020018781526020018681526020018560038111156102bd57fe5b60ff1681526020018460000b60000b8152602001838103835289818151815260200191508051906020019080838360005b838110156103095780820151818401526020810190506102ee565b50505050905090810190601f1680156103365780820380516001836020036101000a031916815260200191505b50838103825288818151815260200191508051906020019080838360005b8381101561036f578082015181840152602081019050610354565b50505050905090810190601f16801561039c5780820380516001836020036101000a031916815260200191505b50995050505050505050505060405180910390f35b3480156103bd57600080fd5b50610400600480360360208110156103d457600080fd5b81019080803573ffffffffffffffffffffffffffffffffffffffff169060200190929190505050610f70565b005b34801561040e57600080fd5b5061043b6004803603602081101561042557600080fd5b81019080803590602001909291905050506110c5565b6040518088815260200180602001806020018760ff1660ff16815260200186815260200185600381111561046b57fe5b60ff1681526020018460000b60000b8152602001838103835289818151815260200191508051906020019080838360005b838110156104b757808201518184015260208101905061049c565b50505050905090810190601f1680156104e45780820380516001836020036101000a031916815260200191505b50838103825288818151815260200191508051906020019080838360005b8381101561051d578082015181840152602081019050610502565b50505050905090810190601f16801561054a5780820380516001836020036101000a031916815260200191505b50995050505050505050505060405180910390f35b60055434101515156105ff576040517f08c379a00000000000000000000000000000000000000000000000000000000081526004018080602001828103825260218152602001807f42657420616d6f756e74206d757374206265203e3d206d696e696d756d20626581526020017f740000000000000000000000000000000000000000000000000000000000000081525060400191505060405180910390fd5b600460009054906101000a900473ffffffffffffffffffffffffffffffffffffffff1673ffffffffffffffffffffffffffffffffffffffff1663a9345240836040518263ffffffff167c01000000000000000000000000000000000000000000000000000000000281526004018082815260200191505060206040518083038186803b15801561068e57600080fd5b505afa1580156106a2573d6000803e3d6000fd5b505050506040513d60208110156106b857600080fd5b8101908080519060200190929190505050151561073d576040517f08c379a00000000000000000000000000000000000000000000000000000000081526004018080602001828103825260198152602001807f537065636966696564206d61746368206e6f7420666f756e640000000000000081525060200191505060405180910390fd5b61074833838361128d565b15156107bc576040517f08c379a00000000000000000000000000000000000000000000000000000000081526004018080602001828103825260108152602001807f426574206973206e6f742076616c69640000000000000000000000000000000081525060200191505060405180910390fd5b6107c58261129a565b1515610839576040517f08c379a000000000000000000000000000000000000000000000000000000000815260040180806020018281038252601a8152602001807f4d61746368206e6f74206f70656e20666f722062657474696e6700000000000081525060200191505060405180910390fd5b60006002600084815260200190815260200160002090506001816080604051908101604052803373ffffffffffffffffffffffffffffffffffffffff1681526020018681526020013481526020018560ff168152509080600181540180825580915050906001820390600052602060002090600402016000909192909190915060008201518160000160006101000a81548173ffffffffffffffffffffffffffffffffffffffff021916908373ffffffffffffffffffffffffffffffffffffffff160217905550602082015181600101556040820151816002015560608201518160030160006101000a81548160ff021916908360ff160217905550505050506000600160003373ffffffffffffffffffffffffffffffffffffffff1673ffffffffffffffffffffffffffffffffffffffff16815260200190815260200160002090508084908060018154018082558091505090600182039060005260206000200160009091929091909150555050505050565b6000600460009054906101000a900473ffffffffffffffffffffffffffffffffffffffff1673ffffffffffffffffffffffffffffffffffffffff16633412a15c6040518163ffffffff167c010000000000000000000000000000000000000000000000000000000002815260040160206040518083038186803b158015610a3357600080fd5b505afa158015610a47573d6000803e3d6000fd5b505050506040513d6020811015610a5d57600080fd5b8101908080519060200190929190505050905090565b6060600460009054906101000a900473ffffffffffffffffffffffffffffffffffffffff1673ffffffffffffffffffffffffffffffffffffffff16635f29d4b16040518163ffffffff167c010000000000000000000000000000000000000000000000000000000002815260040160006040518083038186803b158015610af957600080fd5b505afa158015610b0d573d6000803e3d6000fd5b505050506040513d6000823e3d601f19601f820116820180604052506020811015610b3757600080fd5b810190808051640100000000811115610b4f57600080fd5b82810190506020810184811115610b6557600080fd5b8151856020820283011164010000000082111715610b8257600080fd5b5050929190505050905090565b60008060009054906101000a900473ffffffffffffffffffffffffffffffffffffffff1673ffffffffffffffffffffffffffffffffffffffff163373ffffffffffffffffffffffffffffffffffffffff16141515610bec57600080fd5b81600360006101000a81548173ffffffffffffffffffffffffffffffffffffffff021916908373ffffffffffffffffffffffffffffffffffffffff160217905550600360009054906101000a900473ffffffffffffffffffffffffffffffffffffffff16600460006101000a81548173ffffffffffffffffffffffffffffffffffffffff021916908373ffffffffffffffffffffffffffffffffffffffff160217905550600460009054906101000a900473ffffffffffffffffffffffffffffffffffffffff1673ffffffffffffffffffffffffffffffffffffffff16633412a15c6040518163ffffffff167c010000000000000000000000000000000000000000000000000000000002815260040160206040518083038186803b158015610d1457600080fd5b505afa158015610d28573d6000803e3d6000fd5b505050506040513d6020811015610d3e57600080fd5b81019080805190602001909291905050509050919050565b6000809054906101000a900473ffffffffffffffffffffffffffffffffffffffff1681565b6000600360009054906101000a900473ffffffffffffffffffffffffffffffffffffffff16905090565b6000606080600080600080600460009054906101000a900473ffffffffffffffffffffffffffffffffffffffff1673ffffffffffffffffffffffffffffffffffffffff1663bb2b0f5860016040518263ffffffff167c0100000000000000000000000000000000000000000000000000000000028152600401808215151515815260200191505060006040518083038186803b158015610e4457600080fd5b505afa158015610e58573d6000803e3d6000fd5b505050506040513d6000823e3d601f19601f8201168201806040525060e0811015610e8257600080fd5b81019080805190602001909291908051640100000000811115610ea457600080fd5b82810190506020810184811115610eba57600080fd5b8151856001820283011164010000000082111715610ed757600080fd5b50509291906020018051640100000000811115610ef357600080fd5b82810190506020810184811115610f0957600080fd5b8151856001820283011164010000000082111715610f2657600080fd5b505092919060200180519060200190929190805190602001909291908051906020019092919080519060200190929190505050965096509650965096509650965090919293949596565b6000809054906101000a900473ffffffffffffffffffffffffffffffffffffffff1673ffffffffffffffffffffffffffffffffffffffff163373ffffffffffffffffffffffffffffffffffffffff16141515610fcb57600080fd5b600073ffffffffffffffffffffffffffffffffffffffff168173ffffffffffffffffffffffffffffffffffffffff161415151561100757600080fd5b8073ffffffffffffffffffffffffffffffffffffffff166000809054906101000a900473ffffffffffffffffffffffffffffffffffffffff1673ffffffffffffffffffffffffffffffffffffffff167f8be0079c531659141344cd1fd0a4f28419497f9722a3daafe3b4186f6b6457e060405160405180910390a3806000806101000a81548173ffffffffffffffffffffffffffffffffffffffff021916908373ffffffffffffffffffffffffffffffffffffffff16021790555050565b6000606080600080600080600460009054906101000a900473ffffffffffffffffffffffffffffffffffffffff1673ffffffffffffffffffffffffffffffffffffffff1663fcc6077d896040518263ffffffff167c01000000000000000000000000000000000000000000000000000000000281526004018082815260200191505060006040518083038186803b15801561115f57600080fd5b505afa158015611173573d6000803e3d6000fd5b505050506040513d6000823e3d601f19601f8201168201806040525060e081101561119d57600080fd5b810190808051906020019092919080516401000000008111156111bf57600080fd5b828101905060208101848111156111d557600080fd5b81518560018202830111640100000000821117156111f257600080fd5b5050929190602001805164010000000081111561120e57600080fd5b8281019050602081018481111561122457600080fd5b815185600182028301116401000000008211171561124157600080fd5b5050929190602001805190602001909291908051906020019092919080519060200190929190805190602001909291905050509650965096509650965096509650919395979092949650565b6000600190509392505050565b60006001905091905056fea165627a7a72305820d0e5143283eae7ba55973a6a94fcf4a5a771b3cb2051ba29278cf0253ef112b00029",
  "source": "pragma solidity ^0.5.0;\n\nimport \"./OracleInterface.sol\";\nimport \"./Ownable.sol\";\n\n\n/// @title BoxingBets\n/// @author John R. Kosinski\n/// @notice Takes bets and handles payouts for boxing matches\ncontract BoxingBets is Ownable {\n\n    //mappings\n    mapping(address => bytes32[]) private userToBets;\n    mapping(bytes32 => Bet[]) private matchToBets;\n\n    //boxing results oracle\n       address internal boxingOracleAddr;\n    OracleInterface internal boxingOracle = OracleInterface(boxingOracleAddr);\n\n    //constants\n    uint internal minimumBet = 1000000000000;\n\n    struct Bet {\n        address user;\n        bytes32 matchId;\n        uint amount;\n        uint8 chosenWinner;\n    }\n\n    enum BettableOutcome {\n        Fighter1,\n        Fighter2\n    }\n\n    /// @notice determines whether or not the user has already bet on the given match\n    /// @param _user address of a user\n    /// @param _matchId id of a match\n    /// @param _chosenWinner the index of the participant to bet on (to win)\n    /// @return true if the given user has already placed a bet on the given match\n    function _betIsValid(address _user, bytes32 _matchId, uint8 _chosenWinner) private view returns (bool) {\n\n        return true;\n    }\n\n    /// @notice determines whether or not bets may still be accepted for the given match\n    /// @param _matchId id of a match\n    /// @return true if the match is bettable\n    function _matchOpenForBetting(bytes32 _matchId) private view returns (bool) {\n        return true;\n    }\n\n\n    /// @notice gets a list ids of all currently bettable matches\n    /// @return array of match ids\n    function getBettableMatches() public view returns (bytes32[] memory) {\n        return boxingOracle.getPendingMatches();\n    }\n\n    /// @notice returns the full data of the specified match\n    /// @param _matchId the id of the desired match\n    /// @return match data\n    function getMatch(bytes32 _matchId) public view returns (\n        bytes32 id,\n        string memory name,\n        string memory participants,\n        uint8 participantCount,\n        uint date,\n        OracleInterface.MatchOutcome outcome,\n        int8 winner) {\n\n        return boxingOracle.getMatch(_matchId);\n    }\n\n    /// @notice returns the full data of the most recent bettable match\n    /// @return match data\n    function getMostRecentMatch() public view returns (\n        bytes32 id,\n        string memory name,\n        string memory participants,\n        uint participantCount,\n        uint date,\n        OracleInterface.MatchOutcome outcome,\n        int8 winner) {\n\n        return boxingOracle.getMostRecentMatch(true);\n    }\n\n    /// @notice places a non-rescindable bet on the given match\n    /// @param _matchId the id of the match on which to bet\n    /// @param _chosenWinner the index of the participant chosen as winner\n    function placeBet(bytes32 _matchId, uint8 _chosenWinner) public payable {\n\n        //bet must be above a certain minimum\n        require(msg.value >= minimumBet, \"Bet amount must be >= minimum bet\");\n\n        //make sure that match exists\n        require(boxingOracle.matchExists(_matchId), \"Specified match not found\");\n\n        //require that chosen winner falls within the defined number of participants for match\n        require(_betIsValid(msg.sender, _matchId, _chosenWinner), \"Bet is not valid\");\n\n        //match must still be open for betting\n        require(_matchOpenForBetting(_matchId), \"Match not open for betting\");\n\n        //transfer the money into the account\n        //address(this).transfer(msg.value);\n\n        //add the new bet\n        Bet[] storage bets = matchToBets[_matchId];\n        bets.push(Bet(msg.sender, _matchId, msg.value, _chosenWinner))-1;\n\n        //add the mapping\n        bytes32[] storage userBets = userToBets[msg.sender];\n        userBets.push(_matchId);\n    }\n\n       /// @notice sets the address of the boxing oracle contract to use\n    /// @dev setting a wrong address may result in false return value, or error\n    /// @param _oracleAddress the address of the boxing oracle\n    /// @return true if connection to the new oracle address was successful\n    function setOracleAddress(address _oracleAddress) external payable onlyOwner returns (bool) {\n        boxingOracleAddr = _oracleAddress;\n        boxingOracle = OracleInterface(boxingOracleAddr);\n        return boxingOracle.testConnection();\n    }\n\n    /// @notice gets the address of the boxing oracle being used\n    /// @return the address of the currently set oracle\n    function getOracleAddress() external view returns (address) {\n        return boxingOracleAddr;\n    }\n\n       /// @notice for testing; tests that the boxing oracle is callable\n    /// @return true if connection successful\n    function testOracleConnection() public view returns (bool) {\n        return boxingOracle.testConnection();\n    }\n}",
  "sourcePath": "/Users/AP/Desktop/oracle-example/client/contracts/BoxingBets.sol",
  "compiler": {
    "name": "solc",
    "version": "0.5.0+commit.1d4f565a.Emscripten.clang"
  },
  "schemaVersion": "3.0.9",
  "updatedAt": "2019-06-10T18:47:30.002Z",
  "devdoc": {
    "author": "John R. Kosinski",
    "methods": {
      "getBettableMatches()": {
        "return": "array of match ids"
      },
      "getMatch(bytes32)": {
        "params": {
          "_matchId": "the id of the desired match"
        },
        "return": "match data"
      },
      "getMostRecentMatch()": {
        "return": "match data"
      },
      "getOracleAddress()": {
        "return": "the address of the currently set oracle"
      },
      "placeBet(bytes32,uint8)": {
        "params": {
          "_chosenWinner": "the index of the participant chosen as winner",
          "_matchId": "the id of the match on which to bet"
        }
      },
      "setOracleAddress(address)": {
        "details": "setting a wrong address may result in false return value, or error",
        "params": {
          "_oracleAddress": "the address of the boxing oracle"
        },
        "return": "true if connection to the new oracle address was successful"
      },
      "testOracleConnection()": {
        "return": "true if connection successful"
      },
      "transferOwnership(address)": {
        "details": "Allows the current owner to transfer control of the contract to a newOwner.",
        "params": {
          "newOwner": "The address to transfer ownership to."
        }
      }
    },
    "title": "BoxingBets"
  },
  "userdoc": {
    "methods": {
      "getBettableMatches()": {
        "notice": "gets a list ids of all currently bettable matches"
      },
      "getMatch(bytes32)": {
        "notice": "returns the full data of the specified match"
      },
      "getMostRecentMatch()": {
        "notice": "returns the full data of the most recent bettable match"
      },
      "getOracleAddress()": {
        "notice": "gets the address of the boxing oracle being used"
      },
      "placeBet(bytes32,uint8)": {
        "notice": "places a non-rescindable bet on the given match"
      },
      "setOracleAddress(address)": {
        "notice": "sets the address of the boxing oracle contract to use"
      },
      "testOracleConnection()": {
        "notice": "for testing; tests that the boxing oracle is callable"
      }
    },
    "notice": "Takes bets and handles payouts for boxing matches"
  }
}